:0400000053EF00F0CA
:0E0008002A82FACF01F0FBCF02F0D1EF01F017
:100018002A80D8CF0FF0E8CF10F0E0CF11F0FACF58
:1000280012F0FBCF13F0E9CF14F0EACF15F0E1CFCF
:1000380016F0E2CF17F0D9CF18F0DACF19F0F3CFD6
:100048001AF0F4CF1BF0F6CF1CF0F7CF1DF0F8CF65
:100058001EF0F5CF1FF01FC0F5FF1EC0F8FF1DC032
:10006800F7FF1CC0F6FF1BC0F4FF1AC0F3FF19C04E
:10007800DAFF18C0D9FF17C0E2FF16C0E1FF15C0AC
:10008800EAFF14C0E9FF13C0FBFF12C0FAFF11C05A
:10009800E0FF10C0E8FF0FC0D8FF2A90100070EFF3
:1000A80002F0939493866F8E6EAE6EAC02D06EBAE9
:1000B800FBD7739A709E709C709A70987096709423
:1000C80070927080718E718C719A7198718671942A
:1000D80071827190729472927280779E779C609C04
:1000E800608A0F01509D0F01508B000E236E010E88
:1000F800226E000E256E010E246E22C020F023C051
:1001080021F021342132203221342132203221348D
:100118002132203220500F01006F2238E846E00BD0
:100128000F01016F24C020F025C021F021342132B5
:100138002032213421322032213421322032205001
:100148000F01186F2438E846E00B0F01196F0F01F3
:1001580001970D01D481000E276E000E266E000E49
:10016800296E010E286E26C020F027C021F0213408
:1001780021322032213421322032213421322032DE
:1001880020500F01086F2638E846E00B0F01096F71
:1001980028C020F029C021F0213421322032213416
:1001A8002132203221342132203220500F011C6F9D
:1001B8002838E846E00B0F011D6F0F0105970D0168
:1001C800D4856F9E6F9C6F9A6EAE12006EAC120053
:1001D8006EAA1200F9D720EE07F02050D926215038
:1001E800DA22DF500F014D6F20EE06F02050D9269D
:1001F8002150DA22DF500F014C6F20EE05F020501D
:10020800D9262150DA22DF500F014B6F20EE04F07F
:100218002050D9262150DA22DF500F014A6F20EEF4
:1002280003F02050D9262150DA22DF500F01496F00
:1002380020EE02F02050D9262150DA22DF500F019B
:10024800486F20EE01F02050D9262150DA22DF50E5
:100258000F01476F20C0D9FF21C0DAFFDF500F011F
:10026800466F20EE0AF02050D9262150DA22DF50BE
:100278000F01456F20EE08F02050D9262150DA22D0
:10028800DECF22F0DDCF23F0233423322232233491
:100298002332223223342332223222500F01416F7B
:1002A80020EE08F02050D9262150DA22DF50226EA5
:1002B800050E236ED8902236232EFCD722500F012C
:1002C800426F0F0142970F014087120063EC02F062
:1002D80055EC00F047EC02F0000E0001696F000ECB
:1002E800686F000E0001616F000E606F000E000164
:1002F800636F000E626F000E0001656F000E646F81
:10030800000E0001676F000E666F1E0E00016A6F17
:10031800200E00016B6F670E00016C6F6BC023F03D
:100328006CC024F000016A5136EC02F01E0E000188
:100338006A6F240E00016B6FF00E00016C6F6BC0CA
:1003480023F06CC024F000016A5136EC02F0280E4C
:10035800236E1E0E07EC02F023C068F024C069F07B
:10036800290E236E1E0E07EC02F0235000016927A8
:10037800000E0001766F000E756F020E0001776F98
:1003880068C06DF00001695100016E6F6D0E206E3E
:10039800000E216EEFEC00F0DAD7E9CF03F0EACFD8
:1003A80004F0E1CF05F0E2CF06F0D9CF07F0DACFBD
:1003B80008F0F3CF09F0F4CF0AF0F6CF0BF0F7CF3F
:1003C8000CF0F8CF0DF0F5CF0EF00EC0F5FF0DC014
:1003D800F8FF0CC0F7FF0BC0F6FF0AC0F4FF09C016
:1003E800F3FF08C0DAFF07C0D9FF06C0E2FF05C067
:1003F800E1FF04C0EAFF03C0E9FF02C0FBFF01C040
:10040800FAFF2A921100266E79EC02F0000E216E96
:1004180026505BEC02F023506AEC02F07DEC02F00F
:10042800010E216E26505BEC02F0000E23EC02F068
:10043800256E75EC02F025C023F0246A1200216EA7
:1004480052EC02F0C58652EC02F0C9CF22F052EC11
:1004580002F02150D8B402D0C59A01D0C58AC58807
:1004680022501200256E79EC02F0000E216E255004
:100478005BEC02F023506AEC02F024506AEC02F0C4
:1004880075EC02F0120094869488280EC66E000E51
:10049800C56E4F0EC86EC00EC76E1200C5CF20F0D5
:1004A8001F0E2016D8A4FAD7C7A41200F7D7226EB9
:1004B80052EC02F0225022242124C96E1200D38C5F
:1004C800D38AD388D392D3909B8C1200216E52EC9E
:1004D80002F021C0C9FF12002A902A9200016AEF97
:1004E80001F052EC02F0C584120052EC02F0C58013
:0A04F800120052EC02F0C58212005F
:020000040020DA
:08000000FFFFFFFFFFFFFFFF00
:020000040030CA
:0E000000FF081F1EFF8285FF3FC03FE03F400C
:00000001FF
