:0400000053EF00F0CA
:0E0008003B82FACF01F0FBCF02F0DFEF02F0F7
:100018003B80D8CF0FF0E8CF10F0E0CF11F0FACF47
:1000280012F0FBCF13F0E9CF14F0EACF15F0E1CFCF
:1000380016F0E2CF17F0D9CF18F0DACF19F0F3CFD6
:100048001AF0F4CF1BF0F6CF1CF0F7CF1DF0F8CF65
:100058001EF0F5CF1FF01FC0F5FF1EC0F8FF1DC032
:10006800F7FF1CC0F6FF1BC0F4FF1AC0F3FF19C04E
:10007800DAFF18C0D9FF17C0E2FF16C0E1FF15C0AC
:10008800EAFF14C0E9FF13C0FBFF12C0FAFF11C05A
:10009800E0FF10C0E8FF0FC0D8FF3B901000C3EF8F
:1000A80003F0BDEC03F094EC03F0B0EC03F0A70E02
:1000B80000018B6F000E0001806F000E7F6F000E35
:1000C8000001826F000E816F000E0001846F000E28
:1000D800836F000E0001606F000E0001616F000E5B
:1000E8000001626F000E0001636F000E0001646F73
:1000F800000E0001656F000E0001666F000E000122
:10010800676F000E0001686F000E0001866F000E19
:10011800856F000E0001886F000E876F000E0001CA
:100128008A6F000E896FD70E00018E6F230E0001B3
:100138008F6F3C0E0001906F000E0001696F000E7A
:1001480000016A6F000E00016B6F000E00016C6FFA
:10015800000E00016D6F000E00016E6F000E0001B1
:100168006F6F000E0001706F000E0001716F000EBE
:100178000001736F000E726F000E0001756F000EA4
:10018800746FCDEC03F0A3EC03F020C072F021C033
:1001980073F0C8EC03F0A3EC03F020C074F021C0A6
:1001A80075F08B8C8B9E00018B51B7EC03F0000E21
:1001B800B7EC03F0D2EC03F000018C6F00018C392E
:1001C800E8461F0B010B00018C6F00018C510001E8
:1001D800D8B412D065EC03F021C07FF022C080F0C3
:1001E8004BEC03F021C081F022C082F031EC03F027
:1001F80021C083F022C084F08B8C8B8E7FC028F0C6
:1002080080C029F015EC03F028C02CF029C02DF08F
:100218002AC02EF0DA0E2F6EFF0E306E380E316EB9
:100228000EEC02F02CC060F02DC061F02EC062F020
:1002380081C028F082C029F015EC03F028C02CF00A
:1002480029C02DF02AC02EF0DA0E2F6EFF0E306E68
:10025800380E316E0EEC02F02CC063F02DC064F045
:100268002EC065F083C028F084C029F015EC03F097
:1002780028C02CF029C02DF02AC02EF0DA0E2F6EDF
:10028800FF0E306E380E316E0EEC02F02CC066F0A8
:100298002DC067F02EC068F08B9C8B8E00018B51AF
:1002A800B7EC03F0000EB7EC03F0D2EC03F000015A
:1002B8008D6F00018D39E8461F0B010B00018D6F12
:1002C80000018D510001D8B412D065EC03F021C0B3
:1002D80085F022C086F04BEC03F021C087F022C0E5
:1002E80088F031EC03F021C089F022C08AF08B8CB1
:1002F8008B8E85C028F086C029F015EC03F028C045
:100308002CF029C02DF02AC02EF05C0E2F6E0F0E97
:10031800306E3C0E316E0EEC02F02CC076F02DC023
:1003280077F02EC078F087C028F088C029F015EC47
:1003380003F028C02CF029C02DF02AC02EF05C0E46
:100348002F6E0F0E306E3C0E316E0EEC02F02CC08C
:1003580079F02DC07AF02EC07BF089C028F08AC0D1
:1003680029F015EC03F028C02CF029C02DF02AC084
:100378002EF05C0E2F6E0F0E306E3C0E316E0EECB2
:1003880002F02CC07CF02DC07DF02EC07EF0000E57
:10039800216E0A0E206E7FEC03F076C02CF077C039
:1003A8002DF078C02EF08EC02FF08FC030F090C0A6
:1003B80031F00EEC02F02CC069F02DC06AF02EC0AE
:1003C8006BF079C02CF07AC02DF07BC02EF08EC077
:1003D8002FF08FC030F090C031F00EEC02F02CC03E
:1003E8006CF02DC06DF02EC06EF07CC02CF07DC07E
:1003F8002DF07EC02EF08EC02FF08FC030F090C050
:1004080031F00EEC02F02CC06FF02DC070F02EC051
:1004180071F0B7D62EC032F0336A346A2D343236D2
:1004280001E333803250356E3550D8A407D0000E22
:100438002C6E000E2D6E000E2E6E120031C032F0A2
:10044800336A346A3034323601E3338032503A6EDC
:100458003A50D8A407D0000E2C6E000E2D6E000E58
:100468002E6E12003A507B0F35262EC03AF03150CE
:100478003A1A800E3A162D8E308EFF0E2F16FF0E6A
:100488003016000E3116000E366E000E376E000E56
:10049800386E070E396E2CA006D02F5036263050F5
:1004A800372231503822D8902E322D322C32D89023
:1004B8002F3630363136392EEED7090E396E2CA04C
:1004C80006D02F5036263050372231503822D89057
:1004D8002E322D322C32D890383237323632392EED
:1004E800EED736C020F037C021F038C022F035C032
:1004F80023F03AC024F088EC02F020C02CF021C090
:100508002DF022C02EF012002350D8B405D0205070
:1005180021102210D8A40CD0000E206E000E216EDF
:10052800000E226E1200232AD89022322132203265
:10053800000E2014256E000E2114266EFE0E2214C5
:10054800276E255026102710D8B40CD0ECD7232AB4
:10055800010E2026000E2122000E2222D8902232DF
:1005680021322032000E2014256E000E2114266E32
:10057800FF0E2214276E255026102710D8B406D057
:10058800E6D72306D89020362136223621BE03D05E
:10059800020E2360F6D723A0219ED8902332235041
:1005A80022122450D8A4228E20C020F021C021F08D
:1005B80022C022F01200E9CF03F0EACF04F0E1CF25
:1005C80005F0E2CF06F0D9CF07F0DACF08F0F3CF85
:1005D80009F0F4CF0AF0F6CF0BF0F7CF0CF0F8CF14
:1005E8000DF0F5CF0EF00EC0F5FF0DC0F8FF0CC0F2
:1005F800F7FF0BC0F6FF0AC0F4FF09C0F3FF08C0FD
:10060800DAFF07C0D9FF06C0E2FF05C0E1FF04C05A
:10061800EAFF03C0E9FF02C0FBFF01C0FAFF3B92FB
:100628001100000E2B6E29AE06D0286C291ED8B0FA
:10063800292A010E2B6E28C020F029C021F0226A39
:100648008E0E236E2BC024F088EC02F020C028F018
:1006580021C029F022C02AF01200AC0EB7EC03F03A
:10066800000EB7EC03F0D2EC03F0236E2350246E97
:10067800256AAD0EB7EC03F0000EB7EC03F0D2EC30
:1006880003F0252624C021F025C022F01200AA0E6E
:10069800B7EC03F0000EB7EC03F0D2EC03F0236ED6
:1006A8002350246E256AAB0EB7EC03F0000EB7ECAE
:1006B80003F0D2EC03F0252624C021F025C022F057
:1006C8001200A80EB7EC03F0000EB7EC03F0D2EC62
:1006D80003F0236E2350246E256AA90EB7EC03F0AD
:1006E800000EB7EC03F0D2EC03F0252624C021F06D
:1006F80025C022F01200000E246E000E236E09D0D1
:10070800040E226E3E0EE82EFED7222EFCD7234A78
:10071800242A2050235C21502458D8B01200F0D746
:100728009488949A9496949C949EC69AC698C78CDA
:10073800C79EC690C692C694C696C68A1200C28242
:10074800C2B2FED7C3CF22F0236AC450232622C0E8
:1007580020F023C021F01200210EB7EC03F0080EA0
:10076800B7EC03F01200206EC6BEFED720C0C9FF4A
:1007780012009B8CD388D38AD38C929C12003B9016
:100788003B92000155EF00F0C250C30B0409C26E42
:100798001200C294C296C298C29A1200C7A0FED78D
:0407A800C950120022
:020000040020DA
:08000000FFFFFFFFFFFFFFFF00
:020000040030CA
:0E000000FF081F1EFF8285FF3FC03FE03F400C
:00000001FF
