:0400000053EF00F0CA
:0E0008002A82FACF01F0FBCF02F022EF02F0C5
:100018002A80D8CF0FF0E8CF10F0E0CF11F0FACF58
:1000280012F0FBCF13F0E9CF14F0EACF15F0E1CFCF
:1000380016F0E2CF17F0D9CF18F0DACF19F0F3CFD6
:100048001AF0F4CF1BF0F6CF1CF0F7CF1DF0F8CF65
:100058001EF0F5CF1FF01FC0F5FF1EC0F8FF1DC032
:10006800F7FF1CC0F6FF1BC0F4FF1AC0F3FF19C04E
:10007800DAFF18C0D9FF17C0E2FF16C0E1FF15C0AC
:10008800EAFF14C0E9FF13C0FBFF12C0FAFF11C05A
:10009800E0FF10C0E8FF0FC0D8FF2A901000C1EFA2
:1000A80002F0B4EC02F00DEC01F098EC02F0A70EAF
:1000B8000001836F000E0001856F000E846F000E33
:1000C8000001766F000E756F000E0001786F000E4C
:1000D800776F000E0001606F000E0001616F000E67
:1000E8000001626F000E0001636F000E0001646F73
:1000F800000E0001656F000E0001666F000E000122
:10010800676F000E0001686F000E00017A6F000E25
:10011800796F000E00017C6F000E7B6F000E0001EE
:100128007E6F000E7D6FD70E0001696F230E0001F0
:100138006A6F3C0E00016B6F000E00016C6F000EC1
:1001480000016D6F000E00016E6F000E00016F6FF1
:10015800000E0001706F000E0001716F000E0001AB
:10016800726F000E0001736F000E0001746F000EB5
:100178000001806F000E7F6F000E0001826F000E7D
:10018800816F1E0E0001866F200E0001876F670EBB
:100198000001886F87C023F088C024F000018651D1
:1001A80087EC02F01E0E0001866F240E0001876F97
:1001B800F00E0001886F87C023F088C024F000018A
:1001C800865187EC02F0280E236E1E0E58EC02F0C2
:1001D80023C084F024C085F0290E236E1E0E58EC2F
:1001E80002F0235000018527000E0001926F000ED7
:1001F800916F020E0001936F84C089F00001855150
:1002080000018A6F890E206E000E216EA7EC01F0A6
:10021800DAD7939493866F8E6EAE6EAC02D06EBAB8
:10022800FBD7739A709E709C709A709870967094B1
:1002380070927080718E718C719A719871867194B8
:1002480071827190729472927280779E779C609C92
:10025800608A0F01509D0F01508B000E236E010E16
:10026800226E000E256E010E246E22C020F023C0DF
:1002780021F021342132203221342132203221341C
:100288002132203220500F01006F2238E846E00B5F
:100298000F01016F24C020F025C021F02134213244
:1002A8002032213421322032213421322032205090
:1002B8000F01186F2438E846E00B0F01196F0F0182
:1002C80001970D01D481000E276E000E266E000ED8
:1002D800296E010E286E26C020F027C021F0213497
:1002E800213220322134213220322134213220326D
:1002F80020500F01086F2638E846E00B0F01096F00
:1003080028C020F029C021F02134213220322134A4
:100318002132203221342132203220500F011C6F2B
:100328002838E846E00B0F011D6F0F0105970D01F6
:10033800D4856F9E6F9C6F9A6EAE12006EAC1200E1
:100348006EAA1200F9D720EE07F02050D9262150C6
:10035800DA22DF500F014D6F20EE06F02050D9262B
:100368002150DA22DF500F014C6F20EE05F02050AB
:10037800D9262150DA22DF500F014B6F20EE04F00E
:100388002050D9262150DA22DF500F014A6F20EE83
:1003980003F02050D9262150DA22DF500F01496F8F
:1003A80020EE02F02050D9262150DA22DF500F012A
:1003B800486F20EE01F02050D9262150DA22DF5074
:1003C8000F01476F20C0D9FF21C0DAFFDF500F01AE
:1003D800466F20EE0AF02050D9262150DA22DF504D
:1003E8000F01456F20EE08F02050D9262150DA225F
:1003F800DECF22F0DDCF23F0233423322232233420
:100408002332223223342332223222500F01416F09
:1004180020EE08F02050D9262150DA22DF50226E33
:10042800050E236ED8902236232EFCD722500F01BA
:10043800426F0F0142970F0140871200E9CF03F086
:10044800EACF04F0E1CF05F0E2CF06F0D9CF07F00C
:10045800DACF08F0F3CF09F0F4CF0AF0F6CF0BF0BB
:10046800F7CF0CF0F8CF0DF0F5CF0EF00EC0F5FF7A
:100478000DC0F8FF0CC0F7FF0BC0F6FF0AC0F4FF71
:1004880009C0F3FF08C0DAFF07C0D9FF06C0E2FFC2
:1004980005C0E1FF04C0EAFF03C0E9FF02C0FBFF9B
:1004A80001C0FAFF2A921100266ECAEC02F0000E73
:1004B800216E2650ACEC02F02350BBEC02F0CEECDF
:1004C80002F0010E216E2650ACEC02F0000E74EC26
:1004D80002F0256EC6EC02F025C023F0246A120053
:1004E800216EA3EC02F0C586A3EC02F0C9CF22F07E
:1004F800A3EC02F02150D8B402D0C59A01D0C58A25
:10050800C58822501200256ECAEC02F0000E216E3A
:100518002550ACEC02F02350BBEC02F02450BBECAD
:1005280002F0C6EC02F0120094869488280EC66E7B
:10053800000EC56E4F0EC86EC00EC76E1200C5CF36
:1005480020F01F0E2016D8A4FAD7C7A41200F7D798
:10055800226EA3EC02F0225022242124C96E12003C
:10056800D38CD38AD388D392D3909B8C1200216EDC
:10057800A3EC02F021C0C9FF12002A902A920001C0
:1005880055EF00F0A3EC02F0C5841200A3EC02F0D2
:0C059800C5801200A3EC02F0C582120026
:020000040020DA
:08000000FFFFFFFFFFFFFFFF00
:020000040030CA
:0E000000FF081F1EFF8285FF3FC03FE03F400C
:00000001FF
